:100000000A128A11DB2FFF1B0D2883137F18831719
:100010000008840A0319FF0A080000308A00040857
:10002000840A820700342D342D342D342D342D34A0
:100030002D342D342D342D342D342D342D342D34B8
:100040002D342D342D342D342D342D342D342D34A8
:100050002D342D342D340A340034503465346F344B
:1000600070346C34653420346234653474347734DD
:10007000653465346E3420343134353430342D34C5
:100080003134373430343A3420342034003450346E
:1000900065346F3470346C346534203462346534C4
:1000A00074347734653465346E3420343134373405
:1000B00030342D343134393430343A34203420342F
:1000C0000034503465346F3470346C34653420340B
:1000D0006F3476346534723420343134393430340A
:1000E0003A3420342034003435342D34373420343D
:1000F00037342D34393420346F34763465347234E7
:100100002034393400346234653466346F347234E8
:10011000653420345734683469346C3465340034C1
:100120003034003464008001840A0406031900346A
:1001300004069328F800780803199F28A028B428FB
:10014000F31FA328A428B4287009FA007109FB0042
:100150007209FC007309FD00FA0A0319FB0A03196E
:10016000FC0A0319FD0ABC287308FD007208FC0094
:100170007108FB007008FA007308720471047004BF
:10018000031DC328C428CD280030F3000030F2003E
:100190000030F1000030F00053299630F40074086C
:1001A000F900DF280130F4007408F907013003106A
:1001B000FD0CFC0CFB0CFA0CFF3E031DD728FE3097
:1001C0007D05031DE428E528D22801290130F4002B
:1001D0007408F9070130FA07003003180130FB07F3
:1001E000003003180130FC07003003180130FD0710
:1001F00001300310FD0CFC0CFB0CFA0CFF3E031D40
:10020000F928FF307D05031D06290729E628132953
:100210000130F9020130F4000310FA0DFB0DFC0D62
:10022000FD0DF40B0C29FC1B162917291D29023082
:10023000790203181C291D29082979182029212948
:100240002929FF30FA05FF30FB057F30FC05FF3020
:10025000FD050310F90C7908F400F501F601F7012A
:1002600018300310F40DF50DF60DF70DFF3E031DCC
:1002700031297408FA047508FB047608FC04770831
:10028000FD0478080319452946294B29F31F4929FC
:100290004A294B29FD177D08F3007C08F2007B08F2
:1002A000F1007A08F0000800831203136703680462
:1002B000031D5B295C29EB290510851001305905C8
:1002C000A00000305A05A10020032104031D692964
:1002D0006A296B29051520082104031D702971293D
:1002E000722905110230F0000030F1005A08F300C5
:1002F0005908F2000A128A15F7260A128A117108A3
:1003000083120313DA007008D90001305905A000E8
:1003100000305A05A10020032104031D90299129D2
:100320009229851520082104031D972998299929C8
:1003300085110230F0000030F1005A08F30059082E
:10034000F2000A128A15F7260A128A11710883121E
:100350000313DA007008D90001305905A0000030FD
:100360005A05A10020032104031DB729B829B92982
:10037000051620082104031DBE29BF29C029051226
:100380000230F0000030F1005A08F3005908F20082
:100390000A128A15F7260A128A11710883120313AA
:1003A000DA007008D90001305905A00000305A0564
:1003B000A10020032104031DDE29DF29E029851681
:1003C00020082104031DE529E629E72985120230CA
:1003D000E7000030E800023067066804031DF129D9
:1003E000F2297D2A0514851001305705A20000303E
:1003F0005805A30022032304031DFF29002A012A14
:10040000051522082304031D062A072A082A0511B8
:100410000230F0000030F1005808F3005708F200F5
:100420000A128A15F7260A128A1171088312031319
:10043000D8007008D70001305705A20000305805D9
:10044000A30022032304031D262A272A282A851510
:1004500022082304031D2D2A2E2A2F2A851102305B
:10046000F0000030F1005808F3005708F2000A12BB
:100470008A15F7260A128A11710883120313D8000D
:100480007008D70001305705A20000305805A300BE
:1004900022032304031D4D2A4E2A4F2A0516220843
:1004A0002304031D542A552A562A05120230F0004F
:1004B0000030F1005808F3005708F2000A128A15BC
:1004C000F7260A128A11710883120313D8007008E4
:1004D000D70001305705A20000305805A3002203C1
:1004E0002304031D742A752A762A851622082304FC
:1004F000031D7B2A7C2A7D2A851203306706680447
:10050000031D832A842A132B0510851401305505F9
:10051000A40000305605A50024032504031D912ADC
:10052000922A932A051524082504031D982A992A3E
:100530009A2A05110230F0000030F1005608F3004D
:100540005508F2000A128A15F7260A128A11710854
:1005500083120313D6007008D50001305505A4009E
:1005600000305605A50024032504031DB82AB92A26
:10057000BA2A851524082504031DBF2AC02AC12ACA
:1005800085110230F0000030F1005608F3005508E4
:10059000F2000A128A15F7260A128A1171088312CC
:1005A0000313D6007008D50001305505A4000030B3
:1005B0005605A50024032504031DDF2AE02AE12AAD
:1005C000051624082504031DE62AE72AE82A051251
:1005D0000230F0000030F1005608F3005508F20038
:1005E0000A128A15F7260A128A1171088312031358
:1005F000D6007008D50001305505A400003056051E
:10060000A50024032504031D062B072B082B8516A4
:1006100024082504031D0D2B0E2B0F2B85120130F2
:10062000E7000030E8000800831203132708803930
:10063000A8002808B1002708A8002807A900290851
:10064000B800A61F242B252B262B38143808031995
:100650002A2B2B2B3B2B380A031D2F2B302B382B0F
:100660000030A7000030A6000030A5000030A40034
:10067000A617A701432B0030A7000030A6000030CA
:10068000A5000030A40023088039A8002808B1067E
:100690002308A8002807A9002908B900A21F512B88
:1006A000522B532B391439080319572B582B682B0D
:1006B000390A031D5C2B5D2B652B0030A300003035
:1006C000A2000030A1000030A000A217A301702BEF
:1006D0000030A3000030A2000030A1000030A000D4
:1006E0002308220421042004031D772B782B912B4F
:1006F0000030A7000030A6000030A5000030A400A4
:100700008030A6047F30A7043108A8002808A70479
:100710002708A3002608A2002508A1002408A0009D
:10072000F02C3808031D952B962B9F2B0030A3002F
:100730000030A2000030A1000030A000F02C3808EA
:10074000A800A9012908AB0039082802AA00031C47
:10075000AB032A087F3EB2002B080318013E003E7F
:10076000B3002708B0002608AF002508AE00240813
:10077000AD000030A7000030A6000030A50000301A
:10078000A4000030B7000030B6000030B5000030E3
:10079000B400B901152C39080319CF2BD02BF02B3D
:1007A0000130A8000310AD0DAE0DAF0DB00DA80BBC
:1007B000D22B0130A8000310A40DA50DA60DA70D86
:1007C000A80BDB2BB71FE52BE62BE72B24140130FE
:1007D000A8000310B40DB50DB60DB70DA80BE92B8D
:1007E00023083002031DFE2B22082F02031DFE2BBF
:1007F00021082E02031DFE2B20082D02031C012CB4
:10080000022C112C37172008AD022108031C210FE0
:10081000AE022208031C220FAF022308031C230F81
:10082000B0020130A8002808B9071A303902031CA9
:100830001A2C1B2CCB2B30082F042E042D0403194B
:10084000222C232C422C3414422C0130A8000310FB
:10085000A40DA50DA60DA70DA80B272CB71F312C95
:10086000322C332C24140130A8000310B40DB50D24
:10087000B60DB70DA80B352CFF30B2070318B30A1D
:10088000FF30B307A61F452C462C252CB901B71FF6
:100890004A2C4B2C672CFF303405A800FF3035055F
:1008A000A900FF303605AA007F303705AB002B08C2
:1008B0002A042904280403195E2C5F2C622CB90138
:1008C000B90A672C241C652C662C672C5F2C390810
:1008D00003196B2C6C2C9D2C0130A40700300318DD
:1008E0000130A507003003180130A60700300318B7
:1008F0000130A707271C7D2C7E2C9D2C2408A800E6
:100900002508A9002608AA002708AB000130AC0082
:100910002B0DAB0CAA0CA90CA80CAC0B882C2B082B
:10092000A7002A08A6002908A5002808A40001306D
:10093000B2070318B30A0030B3073308803AFF0048
:1009400080307F02031DA62CFF303202031CA92C2D
:10095000AA2CB82CFF3083120313B2000030B3006E
:100960000030A7000030A6000030A5000030A40031
:10097000831203133308803AFF0080307F02031D87
:10098000C32C013032020318C62CC72CD42C83127E
:100990000313B201B3010030A7000030A6000030FD
:1009A000A5000030A400B101831203133208A8008F
:1009B0002808B800381CDD2CDE2CE02CA617E42C0F
:1009C0007F30A8002808A6053808A8000310280CC6
:1009D000A9002908A7003108A8002808A704882B27
:1009E0000800831603138601071187110810881069
:1009F000081188118813081788120816871207161D
:100A00008312031310129012901083160313051013
:100A1000851005118511051285120A128A15DC242C
:100A20000A128A110A128A1578240A128A11803051
:100A30000A128A15B4240A128A117130F300803028
:100A4000F4000A128A151B250A128A110330831238
:100A50000313C5008A30C4005530C300C30B2E2DCC
:100A6000C40B2E2DC50B2E2D0A128A1578240A12BE
:100A70008A1180300A128A15B4240A128A1162304F
:100A8000F3008030F4000A128A151B250A128A111D
:100A9000C0300A128A15B4240A128A117E30F3007B
:100AA0008030F4000A128A151B250A128A11C530FB
:100AB0000A128A15B4240A128A117E30F30080309B
:100AC000F4000A128A151B250A128A11CC300A1268
:100AD0008A15B4240A128A117E30F3008030F400A3
:100AE0000A128A151B250A128A1103308312031376
:100AF000C5008A30C4005530C300C30B7D2DC40B24
:100B00007D2DC50B7D2D0A128A15A0240A128A118B
:100B1000831203138810081188110A128A115421B4
:100B20000A128A11413083120313C400ED30C3004E
:100B3000C30B982DC40B982D9D2D0A128A15ED25F7
:100B40000A128A11831203133D08D1003C08D00019
:100B50003B08CF003A08CE004230F3007030F2007C
:100B60000030F1000030F0005108F7005008F600A6
:100B70004F08F5004E08F4000A128A155E270A1283
:100B80008A110318C42DC52DD32D033083120313EE
:100B9000C5008A30C4005530C300C30BCD2DC40B33
:100BA000CD2DC50BCD2D831203135108F300500832
:100BB000F2004F08F1004E08F0004230F7007030AC
:100BC000F6000030F5000030F4000A128A155E27A6
:100BD0000A128A110318ED2DEE2D882D83120313AE
:100BE00088140A128A159C250A128A11831203138B
:100BF0003D08CD003C08CC003B08CB003A08CA00B9
:100C00004230F3007030F2000030F1000030F000AC
:100C10004D08F7004C08F6004B08F5004A08F400B0
:100C20000A128A155E270A128A110318182E192E25
:100C30008C2EC0300A128A15B4240A128A1101308F
:100C400083120313D9070318DA0A0030DA075A08A7
:100C5000FA005908F9000A128A1597260A128A1111
:100C600083120313C3004308D2005208C300C40117
:100C70004308F3004408F4000A128A151B250A12DF
:100C80008A111B30F1008030F2000A128A15F52417
:100C90000A128A110A128A158F240A128A118312E3
:100CA00003135208C300C4014308F1004408F200D2
:100CB0000A128A15F5240A128A110A128A158F243B
:100CC0000A128A111930F1008030F2000A128A15D6
:100CD000F5240A128A110A128A158F240A128A111F
:100CE0000130F1008030F2000A128A15F5240A1250
:100CF0008A110A128A158F240A128A11033083126C
:100D00000313C5008A30C4005530C300C30B862EC0
:100D1000C40B862EC50B862E831203134D08F300D9
:100D20004C08F2004B08F1004A08F0004230F7008E
:100D30007030F6000030F5000030F4000A128A1519
:100D40005E270A128A110318A62EA72E882D831259
:100D5000031308150A128A154B250A128A118312E9
:100D600003133D08C9003C08C8003B08C7003A0807
:100D7000C6004230F3007030F2000030F100003065
:100D8000F0004908F7004808F6004708F500460853
:100D9000F4000A128A155E270A128A110318D12E4E
:100DA000D22E452FC5300A128A15B4240A128A1190
:100DB000013083120313D7070318D80A0030D8076D
:100DC0005808FA005708F9000A128A1597260A12DD
:100DD0008A1183120313C3004308D3005308C300CE
:100DE000C4014308F3004408F4000A128A151B25C5
:100DF0000A128A113530F1008030F2000A128A1589
:100E0000F5240A128A110A128A158F240A128A11ED
:100E1000831203135308C300C4014308F1004408BC
:100E2000F2000A128A15F5240A128A110A128A158A
:100E30008F240A128A111930F1008030F2000A1250
:100E40008A15F5240A128A110A128A158F240A12A9
:100E50008A110130F1008030F2000A128A15F5245F
:100E60000A128A110A128A158F240A128A11033073
:100E700083120313C5008A30C4005530C300C30B6E
:100E80003F2FC40B3F2FC50B3F2F8312031349087D
:100E9000F3004808F2004708F1004608F00042302D
:100EA000F7007030F6000030F5000030F4000A1250
:100EB0008A155E270A128A1103185F2F602FD72F19
:100EC000831203138815CC300A128A15B4240A122F
:100ED0008A11013083120313D5070318D60A003094
:100EE000D6075608FA005508F9000A128A159726FF
:100EF0000A128A1183120313C3004308D400540852
:100F0000C300C4014308F3004408F4000A128A1520
:100F10001B250A128A114F30F1008030F2000A12AC
:100F20008A15F5240A128A110A128A158F240A12C8
:100F30008A11831203135408C300C4014308F1004B
:100F40004408F2000A128A15F5240A128A110A12BC
:100F50008A158F240A128A111930F1008030F200AC
:100F60000A128A15F5240A128A110A128A158F2488
:100F70000A128A110130F1008030F2000A128A153B
:100F8000F5240A128A110A128A158F240A128A116C
:100F9000033083120313C5008A30C4005530C300E8
:100FA000C30BD02FC40BD02FC50BD02F882D882D6D
:100FB0000A128A1100280A128A1574240A128A1148
:100FC000E7000A128A1575240A128A11E8000A122B
:100FD0008A1576240A128A11E9000A128A157724E2
:100FE0000A128A11EA0083135530840067300A120E
:100FF0008A1192200A128A1183010A128A11F12C95
:1018E800013400343C34003401300A128A15B4241F
:1018F8000A128A150800F000700883120313990071
:101908000C1E872C882C842C83160313981C8D2C72
:101918008E2C882C08000D30831203139900023096
:10192800F2008630F1009930F000F00B992CF10BA1
:10193800992CF20B992C08008316031307178717A5
:1019480018151930990018128312031398171813D1
:101958008316031318139816831203131816080016
:10196800F200720883120313860007118711081406
:101978000730F1007D30F000F00BC02CF10BC02CCB
:101988008312031308100800F2007208831203136D
:1019980086000715871108140730F1007D30F00024
:1019A800F00BD42CF10BD42C83120313081008006D
:1019B80038300A128A15B4240A128A1506300A1217
:1019C8008A15B4240A128A150C300A128A15B4240E
:1019D8000A128A1501300A128A15B4240A128A15C5
:1019E80008000A2D7208FF00710884000A128A1183
:1019F80003200A128A150A128A157F240A128A15E8
:101A08000130F1070318F20A0030F2077208831256
:101A18000313FF00710884000A128A1103200A12B6
:101A28008A15003A031D192D1A2DF62C0800F50108
:101A3800F601362D75087307840076080318760AB0
:101A48007407FF000A128A1103200A128A150A1263
:101A58008A15C8240A128A150130F5070318F60AF0
:101A68000030F60775087307840076080318760AAD
:101A7800740783120313FF000A128A1103200A1243
:101A88008A15003A031D492D4A2D1E2D0800831280
:101A980003138E018F018817023083120313BE00CF
:101AA800BE0B542D0000831203138813081F5D2DED
:101AB8005E2D5A2D1014081B622D632D5F2D1010FA
:101AC8004230A3006B30A2003330A1003330A000B5
:101AD8000E08F0000F08F100F201F30100300A12BD
:101AE8008A119A200A128A15730883120313A70011
:101AF8007208A6007108A5007008A4000A128A11CD
:101B080014230A128A15831203132308C200220819
:101B1800C1002108C0002008BF001012901242081E
:101B2800BD004108BC004008BB003F08BA000800DF
:101B3800831203138E018F01881602308312031358
:101B4800BE00BE0BA52D0000831203138812081EC9
:101B5800AE2DAF2DAB2D1014081AB32DB42DB02D0A
:101B680010104230A3006B30A2003330A100333094
:101B7800A0000E08F0000F08F100F201F301003098
:101B88000A128A119A200A128A15730883120313FB
:101B9800A7007208A6007108A5007008A4000A1220
:101BA8008A1114230A128A15831203132308C20008
:101BB8002208C1002108C0002008BF00101290129E
:101BC8004208BD004108BC004008BB003F08BA00FD
:101BD8000800831203138E018F01871602308312C7
:101BE8000313BE00BE0BF62D0000831203138712E9
:101BF800071EFF2D002EFC2D1014071A042E052E8B
:101C0800012E10104230A3006B30A2003330A10027
:101C18003330A0000E08F0000F08F100F201F301C4
:101C280000300A128A119A200A128A157308831240
:101C38000313A7007208A6007108A5007008A40085
:101C48000A128A1114230A128A158312031323080D
:101C5800C2002208C1002108C0002008BF001012DD
:101C680090124208BD004108BC004008BB003F0874
:101C7800BA000800F601F31F422E432E4A2EF2093D
:101C8800F309F20A0319F30AF601F60AF11F4D2EB9
:101C98004E2E532EF009F109F00A0319F10A7008C3
:101CA80071040319582E592E882EF501F50A672E4E
:101CB80001300310F00DF10DFF3E031D5D2E0130C4
:101CC800F4007408F507F11F6A2E6B2E5C2E71085C
:101CD8007302031D712E70087202031C742E752E78
:101CE8007B2E7008F2027108031CF303F302013023
:101CF8000310F10CF00CFF3E031D7C2E0130F502A1
:101D0800031D872E882E6B2E760803198C2E8D2E98
:101D1800922EF209F309F20A0319F30A7308F10083
:101D28007208F00008007A0883120313A1007908EA
:101D3800A0000B30A2000030A300E601FA1FA52E78
:101D4800A62EAB2EF909FA09F90A0319FA0A0A307C
:101D5800F0000030F1007A08F3007908F2000A1266
:101D68008A153E260A128A157008303EFB00FF309D
:101D780083120313A2070318A30AFF30A30722083C
:101D88005B3E84007B08831380000A30F00000303B
:101D9800F1007A08F3007908F2000A128A15F7268A
:101DA8000A128A157108FA007008F90079087A048D
:101DB800031DDF2EE02EAB2E83120313A11FE52E89
:101DC800E62EF42E2D30FB00FF30A2070318A30ADD
:101DD800FF30A30722085B3E84007B088313800042
:101DE80022085B3E0800F601F11FFB2EFC2E032F94
:101DF800F009F109F00A0319F10AF601F60AF31FCE
:101E0800062F072F102FF209F309F20A0319F30A14
:101E18000130F4007408F606F701F801700871043F
:101E28000319172F182F4F2FF501F50A262F013008
:101E38000310F00DF10DFF3E031D1C2F0130F400BF
:101E48007408F507F11F292F2A2F1B2F01300310C3
:101E5800F70DF80DFF3E031D2B2F71087302031DAC
:101E6800372F70087202031C3A2F3B2F422F70083D
:101E7800F2027108031CF303F30277140130031014
:101E8800F10CF00CFF3E031D432F0130F502031D3A
:101E98004E2F4F2F2A2F76080319532F542F592FBF
:101EA800F709F809F70A0319F80A7808F10077081A
:101EB800F000080000307005F80000307105F900E6
:101EC80080307205FA007F307305FB007B087A04C6
:101ED80079047804031D712F722F7A2F0030F300D4
:101EE8000030F2000030F1000030F00000307405DE
:101EF800F80000307505F90080307605FA007F306B
:101F08007705FB007B087A0479047804031D8D2F7C
:101F18008E2F962F0030F7000030F6000030F500C5
:101F28000030F400F31F992F9A2FBE2F0030F800CD
:101F38000030F9000030FA008030FB007008F80229
:101F48007108031C710FA92FAA2FF9027208031C2C
:101F5800720FAF2FB02FFA027308031C730FB52F3F
:101F6800B62FFB027B08F3007A08F2007908F1002B
:101F78007808F000F71FC12FC22FE62F0030F800B5
:101F88000030F9000030FA008030FB007408F802D5
:101F98007508031C750FD12FD22FF9027608031C80
:101FA800760FD72FD82FFA027708031C770FDD2F6B
:101FB800DE2FFB027B08F7007A08F6007908F500A7
:101FC8007808F4008030F3068030F706770873024B
:101FD800031DF82F76087202031DF82F7508710289
:101FE800031DF82F740870020318FB2FFC2FFE2F17
:081FF8000310FF2F0314080081
:08400000FF3FFF3FFF3FFF3FC0
:02400E003A3F37
:00000001FF
