:100000000A128A11E42FFF1B0D2883137F18831710
:100010000008840A0319FF0A080000308A00040857
:10002000840A8207003435342D3437342034373491
:100030002D34393420346F347634653472342034BE
:10004000393400346234653466346F347234653464
:1000500020345734683469346C34653400343034B7
:1000600000343C34003438300A128A15D8270A127A
:100070008A1106300A128A15D8270A128A110C3002
:100080000A128A15D8270A128A1101300A128A1513
:10009000D8270A128A110800F501F60167287508A9
:1000A0007307840076080318760A7407FF000A12A3
:1000B0008A1103200A128A110A128A15EC270A12E1
:1000C0008A110130F5070318F60A0030F6077508A3
:1000D0007307840076080318760A740783120313E3
:1000E000FF000A128A1103200A128A11003A031D26
:1000F0007A287B284F280800831203138E018F0172
:100100008817023083120313BE00BE0B852800003F
:10011000831203138813081F8E288F288B2810142E
:10012000081B93289428902810104230A3006B30AD
:10013000A2003330A1003330A0000E08F0000F08F9
:10014000F100F201F30100300A128A1131230A1280
:100150008A11730883120313A7007208A60071089E
:10016000A5007008A4000A128A11EB230A128A1152
:10017000831203132308C2002208C1002108C00013
:100180002008BF00101290124208BD004108BC00B8
:100190004008BB003F08BA000800831203138E0119
:1001A0008F018816023083120313BE00BE0BD628BF
:1001B0000000831203138812081EDF28E028DC28C1
:1001C0001014081AE428E528E12810104230A30092
:1001D0006B30A2003330A1003330A0000E08F000D5
:1001E0000F08F100F201F30100300A128A113123E5
:1001F0000A128A11730883120313A7007208A6005B
:100200007108A5007008A4000A128A11EB230A12D3
:100210008A11831203132308C2002208C100210897
:10022000C0002008BF00101290124208BD00410813
:10023000BC004008BB003F08BA000800831203134B
:100240008E018F018716023083120313BE00BE0B8E
:1002500027290000831203138712071E3029312932
:100260002D291014071A3529362932291010423049
:10027000A3006B30A2003330A1003330A0000E0881
:10028000F0000F08F100F201F30100300A128A11A8
:1002900031230A128A11730883120313A70072080C
:1002A000A6007108A5007008A4000A128A11EB23A9
:1002B0000A128A11831203132308C2002208C10004
:1002C0002108C0002008BF00101290124208BD0093
:1002D0004108BC004008BB003F08BA000800F60116
:1002E000F31F732974297B29F209F309F20A031910
:1002F000F30AF601F60AF11F7E297F298429F00905
:10030000F109F00A0319F10A700871040319892927
:100310008A29B929F501F50A982901300310F00D51
:10032000F10DFF3E031D8E290130F4007408F5071E
:10033000F11F9B299C298D2971087302031DA22995
:1003400070087202031CA529A629AC297008F202C4
:100350007108031CF303F30201300310F10CF00CDD
:10036000FF3E031DAD290130F502031DB829B9294F
:100370009C2976080319BD29BE29C329F209F3096E
:10038000F20A0319F30A7308F1007208F00008007A
:100390007A0883120313A1007908A0000B30A20091
:1003A0000030A300E601FA1FD629D729DC29F90974
:1003B000FA09F90A0319FA0A0A30F0000030F100CC
:1003C0007A08F3007908F2000A128A116F210A12E2
:1003D0008A117008303EFB00FF3083120313A2071E
:1003E0000318A30AFF30A30722085B3E84007B08A2
:1003F000831380000A30F0000030F1007A08F30027
:100400007908F2000A128A1128220A128A11710848
:10041000FA007008F90079087A04031D102A112ADD
:10042000DC2983120313A11F162A172A252A2D302F
:10043000FB00FF30A2070318A30AFF30A30722081E
:100440005B3E84007B088313800022085B3E08002B
:10045000F601F11F2C2A2D2A342AF009F109F00A9D
:100460000319F10AF601F60AF31F372A382A412A3E
:10047000F209F309F20A0319F30A0130F4007408CF
:10048000F606F701F801700871040319482A492A91
:10049000802AF501F50A572A01300310F00DF10DFD
:1004A000FF3E031D4D2A0130F4007408F507F11FCB
:1004B0005A2A5B2A4C2A01300310F70DF80DFF3E33
:1004C000031D5C2A71087302031D682A70087202FA
:1004D000031C6B2A6C2A732A7008F2027108031C31
:1004E000F303F302771401300310F10CF00CFF3E1C
:1004F000031D742A0130F502031D7F2A802A5B2A1E
:1005000076080319842A852A8A2AF709F809F70A3E
:100510000319F80A7808F1007708F00008000030A5
:100520007005F80000307105F90080307205FA009E
:100530007F307305FB007B087A0479047804031D7F
:10054000A22AA32AAB2A0030F3000030F2000030C8
:10055000F1000030F00000307405F800003075053F
:10056000F90080307605FA007F307705FB007B08C4
:100570007A0479047804031DBE2ABF2AC72A0030F2
:10058000F7000030F6000030F5000030F400F31FF3
:10059000CA2ACB2AEF2A0030F8000030F9000030D8
:1005A000FA008030FB007008F8027108031C710F1C
:1005B000DA2ADB2AF9027208031C720FE02AE12A08
:1005C000FA027308031C730FE62AE72AFB027B0872
:1005D000F3007A08F2007908F1007808F000F71FBC
:1005E000F22AF32A172B0030F8000030F90000300F
:1005F000FA008030FB007408F8027508031C750FC0
:10060000022B032BF9027608031C760F082B092B0B
:10061000FA027708031C770F0E2B0F2BFB027B08C7
:10062000F7007A08F6007908F5007808F4008030C1
:10063000F3068030F70677087302031D292B76082E
:100640007202031D292B75087102031D292B7408E2
:10065000700203182C2B2D2B2F2B0310302B03147F
:100660000800F80078080319362B372B4B2BF31FA3
:100670003A2B3B2B4B2B7009FA007109FB007209D6
:10068000FC007309FD00FA0A0319FB0A0319FC0AAE
:100690000319FD0A532B7308FD007208FC00710852
:1006A000FB007008FA007308720471047004031DE3
:1006B0005A2B5B2B642B0030F3000030F20000302B
:1006C000F1000030F000EA2B9630F4007408F900D5
:1006D000762B0130F4007408F90701300310FD0C8B
:1006E000FC0CFB0CFA0CFF3E031D6E2BFE307D054F
:1006F000031D7B2B7C2B692B982B0130F400740895
:10070000F9070130FA07003003180130FB07003009
:1007100003180130FC07003003180130FD070130D9
:100720000310FD0CFC0CFB0CFA0CFF3E031D902B80
:10073000FF307D05031D9D2B9E2B7D2BAA2B0130A9
:10074000F9020130F4000310FA0DFB0DFC0DFD0D54
:10075000F40BA32BFC1BAD2BAE2BB42B0230790278
:100760000318B32BB42B9F2B7918B72BB82BC02BA6
:10077000FF30FA05FF30FB057F30FC05FF30FD053B
:100780000310F90C7908F400F501F601F7011830AF
:100790000310F40DF50DF60DF70DFF3E031DC82BEC
:1007A0007408FA047508FB047608FC047708FD0455
:1007B00078080319DC2BDD2BE22BF31FE02BE12B58
:1007C000E22BFD177D08F3007C08F2007B08F100A6
:1007D0007A08F00008008312031327088039A80064
:1007E0002808B1002708A8002807A9002908B80090
:1007F000A61FFB2BFC2BFD2B381438080319012CEA
:10080000022C122C380A031D062C072C0F2C00304A
:10081000A7000030A6000030A5000030A400A617F5
:10082000A7011A2C0030A7000030A6000030A50058
:100830000030A40023088039A8002808B106230846
:10084000A8002807A9002908B900A21F282C292CD4
:100850002A2C3914390803192E2C2F2C3F2C390A35
:10086000031D332C342C3C2C0030A3000030A2009C
:100870000030A1000030A000A217A301472C0030D7
:10088000A3000030A2000030A1000030A000230827
:10089000220421042004031D4E2C4F2C682C003010
:1008A000A7000030A6000030A5000030A400803072
:1008B000A6047F30A7043108A8002808A704270849
:1008C000A3002608A2002508A1002408A000C72D27
:1008D0003808031D6C2C6D2C762C0030A3000030E2
:1008E000A2000030A1000030A000C72D3808A800E9
:1008F000A9012908AB0039082802AA00031CAB0390
:100900002A087F3EB2002B080318013E003EB300C8
:100910002708B0002608AF002508AE002408AD0067
:100920000030A7000030A6000030A5000030A40071
:100930000030B7000030B6000030B5000030B40021
:10094000B901EC2C39080319A62CA72CC72C0130AF
:10095000A8000310AD0DAE0DAF0DB00DA80BA92C66
:100960000130A8000310A40DA50DA60DA70DA80B1E
:10097000B22CB71FBC2CBD2CBE2C24140130A800F7
:100980000310B40DB50DB60DB70DA80BC02C230880
:100990003002031DD52C22082F02031DD52C21085F
:1009A0002E02031DD52C20082D02031CD82CD92C77
:1009B000E82C37172008AD022108031C210FAE02D6
:1009C0002208031C220FAF022308031C230FB002CE
:1009D0000130A8002808B9071A303902031CF12C8D
:1009E000F22CA22C30082F042E042D040319F92C0C
:1009F000FA2C192D3414192D0130A8000310A40D60
:100A0000A50DA60DA70DA80BFE2CB71F082D092DAF
:100A10000A2D24140130A8000310B40DB50DB60D35
:100A2000B70DA80B0C2DFF30B2070318B30AFF3027
:100A3000B307A61F1C2D1D2DFC2CB901B71F212D9E
:100A4000222D3E2DFF303405A800FF303505A900CA
:100A5000FF303605AA007F303705AB002B082A048B
:100A6000290428040319352D362D392DB901B90A69
:100A70003E2D241C3C2D3D2D3E2D362D39080319CD
:100A8000422D432D742D0130A4070030031801308E
:100A9000A507003003180130A60700300318013005
:100AA000A707271C542D552D742D2408A8002508B0
:100AB000A9002608AA002708AB000130AC002B0DC6
:100AC000AB0CAA0CA90CA80CAC0B5F2D2B08A70033
:100AD0002A08A6002908A5002808A4000130B207AA
:100AE0000318B30A0030B3073308803AFF008030A0
:100AF0007F02031D7D2DFF303202031C802D812DCE
:100B00008F2DFF3083120313B2000030B30000308A
:100B1000A7000030A6000030A5000030A40083121A
:100B200003133308803AFF0080307F02031D9A2DA3
:100B30000130320203189D2D9E2DAB2D831203131D
:100B4000B201B3010030A7000030A6000030A500BC
:100B50000030A400B101831203133208A800280852
:100B6000B800381CB42DB52DB72DA617BB2D7F307E
:100B7000A8002808A6053808A8000310280CA9001A
:100B80002908A7003108A8002808A7045F2C08003E
:100B900083160313860107118711081088100811A6
:100BA00088118813081788120816871207168312EF
:100BB0000313101290129010C601C701C801C90199
:100BC000CA01CB010A128A1133200A128A110A12B1
:100BD0008A15D1270A128A1180300A128A15D8275D
:100BE0000A128A111030F3008030F4000A128A11C0
:100BF0004C200A128A11033083120313C5008A3075
:100C0000C4005530C300C30B032EC40B032EC50B09
:100C1000032E0A128A15D1270A128A1180300A126D
:100C20008A15D8270A128A110130F3008030F400A7
:100C30000A128A114C200A128A11C0300A128A152F
:100C4000D8270A128A111D30F3008030F4000A12EE
:100C50008A114C200A128A11C5300A128A15D82727
:100C60000A128A111D30F3008030F4000A128A1132
:100C70004C200A128A11CC300A128A15D8270A127F
:100C80008A111D30F3008030F4000A128A114C20C2
:100C90000A128A11033083120313C5008A30C4007C
:100CA0005530C300C30B522EC40B522EC50B522E0F
:100CB000831203138810081188110630831203135E
:100CC000C5001330C400AD30C300C30B652EC40B88
:100CD000652EC50B652E0A128A111E210A128A1171
:100CE000831203133D08DA003C08D9003B08D80002
:100CF0003A08D7004230F3007030F2000030F100C3
:100D00000030F0005A08F7005908F6005808F500BE
:100D10005708F4000A128A118F220A128A11031846
:100D2000922E932EA12E033083120313C5008A3016
:100D3000C4005530C300C30B9B2EC40B9B2EC50BA8
:100D40009B2E831203135A08F3005908F200580827
:100D5000F1005708F0004230F7007030F600003024
:100D6000F5000030F4000A128A118F220A128A114B
:100D70000318BB2EBC2E582E8312031388140A129C
:100D80008A11CD200A128A11831203133D08D6005E
:100D90003C08D5003B08D4003A08D3004230F300A9
:100DA0007030F2000030F1000030F0005608F7001B
:100DB0005508F6005408F5005308F4000A128A1189
:100DC0008F220A128A110318E62EE72E1D2FC23039
:100DD0000A128A15D8270A128A11013083120313C6
:100DE000C6070318C70A0030C7074708FA004608B5
:100DF000F9000A128A11C8210A128A1183120313F8
:100E0000C3004308CC004C08C300C4014308F300EE
:100E10004408F4000A128A114C200A128A11033085
:100E200083120313C5008A30C4005530C300C30BBE
:100E3000172FC40B172FC50B172F83120313560838
:100E4000F3005508F2005408F1005308F000423056
:100E5000F7007030F6000030F5000030F4000A12A0
:100E60008A118F220A128A110318372F382F582E11
:100E70008312031308150A128A117C200A128A11A0
:100E8000831203133D08D2003C08D1003B08D00078
:100E90003A08CF004230F3007030F2000030F10029
:100EA0000030F0005208F7005108F6005008F50035
:100EB0004F08F4000A128A118F220A128A110318AD
:100EC000622F632F992FC5300A128A15D8270A126C
:100ED0008A11013083120313C8070318C90A0030AE
:100EE000C9074908FA004808F9000A128A11C821FE
:100EF0000A128A1183120313C3004308CD004D0860
:100F0000C300C4014308F3004408F4000A128A1124
:100F10004C200A128A11033083120313C5008A3051
:100F2000C4005530C300C30B932FC40B932FC50BC4
:100F3000932F831203135208F3005108F200500854
:100F4000F1004F08F0004230F7007030F60000303A
:100F5000F5000030F4000A128A118F220A128A1159
:100F60000318B32FB42FE02F831203138815CC304E
:100F70000A128A15D8270A128A1101308312031324
:100F8000CA070318CB0A0030CB074B08FA004A08FF
:100F9000F9000A128A11C8210A128A118312031356
:100FA000C3004308CE004E08C300C4014308F30049
:100FB0004408F4000A128A114C200A128A114A2E9F
:100FC000582E0A128A1100280A128A1131200A1298
:100FD0008A11E7000A128A1132200A128A11E800E7
:100FE000DB01DC01DD01DE01DF01E001E101E20105
:100FF000E301E401E501E60183010A128A11C82D2B
:101FA20001300A128A15D8270A128A150800F2008F
:101FB2007208831203138600071187110814073071
:101FC200F1007D30F000F00BE42FF10BE42F8312CF
:101FD200031308100800F20072088312031386002C
:101FE2000715871108140730F1007D30F000F00B5F
:0E1FF200F82FF10BF82F8312031308100800CC
:08400000FF3FFF3FFF3FFF3FC0
:02400E007A3FF7
:00000001FF
