:060000000A128A11D82F3C
:10000800013400343C34003438300A128A15D827B9
:100018000A128A1106300A128A15D8270A128A117A
:100028000C300A128A15D8270A128A1101300A12CE
:100038008A15D8270A128A110800F501F6013C280A
:1000480075087307840076080318760A7407FF009A
:100058000A128A1500200A128A110A128A15EC2738
:100068000A128A110130F5070318F60A0030F6075C
:1000780075087307840076080318760A74078312D4
:100088000313FF000A128A1500200A128A11003A87
:10009800031D4F28502824280800831203138E01BB
:1000A8008F018817023083120313BE00BE0B5A2833
:1000B8000000831203138813081F6328642860282C
:1000C8001014081B68286928652810104230A300FE
:1000D8006B30A2003330A1003330A0000E08F000CE
:1000E8000F08F100F201F30100300A128A11062309
:1000F8000A128A11730883120313A7007208A60054
:100108007108A5007008A4000A128A11C0230A12F7
:100118008A11831203132308C2002208C100210890
:10012800C0002008BF00101290124208BD0041080C
:10013800BC004008BB003F08BA0008008312031344
:100148008E018F018816023083120313BE00BE0B86
:10015800AB280000831203138812081EB428B528A0
:10016800B1281014081AB928BA28B6281010423035
:10017800A3006B30A2003330A1003330A0000E087A
:10018800F0000F08F100F201F30100300A128A11A1
:1001980006230A128A11730883120313A700720830
:1001A800A6007108A5007008A4000A128A11C023CD
:1001B8000A128A11831203132308C2002208C100FD
:1001C8002108C0002008BF00101290124208BD008C
:1001D8004108BC004008BB003F08BA000800831271
:1001E80003138E018F018716023083120313BE009A
:1001F800BE0BFC280000831203138712071E052973
:10020800062902291014071A0A290B290729101090
:100218004230A3006B30A2003330A1003330A0007D
:100228000E08F0000F08F100F201F30100300A1285
:100238008A1106230A128A11730883120313A7006E
:100248007208A6007108A5007008A4000A128A1195
:10025800C0230A128A11831203132308C20022083A
:10026800C1002108C0002008BF00101290124208E7
:10027800BD004108BC004008BB003F08BA000800A8
:10028800F601F31F482949295029F209F309F20A0E
:100298000319F30AF601F60AF11F532954295929BB
:1002A800F009F109F00A0319F10A70087104031939
:1002B8005E295F298E29F501F50A6D2901300310A1
:1002C800F00DF10DFF3E031D63290130F4007408A1
:1002D800F507F11F70297129622971087302031D3E
:1002E800772970087202031C7A297B2981297008F2
:1002F800F2027108031CF303F30201300310F10C3E
:10030800F00CFF3E031D82290130F502031D8D29E3
:100318008E29712976080319922993299829F209B7
:10032800F309F20A0319F30A7308F1007208F000DE
:1003380008007A0883120313A1007908A0000B3083
:10034800A2000030A300E601FA1FAB29AC29B129AD
:10035800F909FA09F90A0319FA0A0A30F000003013
:10036800F1007A08F3007908F2000A128A11442190
:100378000A128A117008303EFB00FF308312031303
:10038800A2070318A30AFF30A30722085B3E8400D4
:100398007B08831380000A30F0000030F1007A08EF
:1003A800F3007908F2000A128A11FD210A128A1153
:1003B8007108FA007008F90079087A04031DE52924
:1003C800E629B12983120313A11FEB29EC29FA2985
:1003D8002D30FB00FF30A2070318A30AFF30A30744
:1003E80022085B3E84007B088313800022085B3E62
:1003F8000800F601F11F012A022A092AF009F10969
:10040800F00A0319F10AF601F60AF31F0C2A0D2A5D
:10041800162AF209F309F20A0319F30A0130F40063
:100428007408F606F701F8017008710403191D2A0B
:100438001E2A552AF501F50A2C2A01300310F00D61
:10044800F10DFF3E031D222A0130F4007408F50760
:10045800F11F2F2A302A212A01300310F70DF80D39
:10046800FF3E031D312A71087302031D3D2A7008DF
:100478007202031C402A412A482A7008F2027108B5
:10048800031CF303F302771401300310F10CF00C92
:10049800FF3E031D492A0130F502031D542A552A3F
:1004A800302A76080319592A5A2A5F2AF709F809BF
:1004B800F70A0319F80A7808F1007708F00008002D
:1004C80000307005F80000307105F90080307205C1
:1004D800FA007F307305FB007B087A0479047804FE
:1004E800031D772A782A802A0030F3000030F200B2
:1004F8000030F1000030F00000307405F8000030E2
:100508007505F90080307605FA007F307705FB0025
:100518007B087A0479047804031D932A942A9C2A78
:100528000030F7000030F6000030F5000030F4002D
:10053800F31F9F2AA02AC42A0030F8000030F900CF
:100548000030FA008030FB007008F8027108031CC4
:10055800710FAF2AB02AF9027208031C720FB52A6C
:10056800B62AFA027308031C730FBB2ABC2AFB02C3
:100578007B08F3007A08F2007908F1007808F000A7
:10058800F71FC72AC82AEC2A0030F8000030F90003
:100598000030FA008030FB007408F8027508031C6C
:1005A800750FD72AD82AF9027608031C760FDD2A98
:1005B800DE2AFA027708031C770FE32AE42AFB02F3
:1005C8007B08F7007A08F6007908F5007808F40047
:1005D8008030F3068030F70677087302031DFE2A81
:1005E80076087202031DFE2A75087102031DFE2A91
:1005F800740870020318012B022B042B0310052B1F
:1006080003140800F800780803190B2B0C2B202B77
:10061800F31F0F2B102B202B7009FA007109FB0018
:100628007209FC007309FD00FA0A0319FB0A031991
:10063800FC0A0319FD0A282B7308FD007208FC0048
:100648007108FB007008FA007308720471047004E2
:10065800031D2F2B302B392B0030F3000030F20014
:100668000030F1000030F000BF2B9630F400740821
:10067800F9004B2B0130F4007408F907013003101E
:10068800FD0CFC0CFB0CFA0CFF3E031D432BFE304B
:100698007D05031D502B512B3E2B6D2B0130F40093
:1006A8007408F9070130FA07003003180130FB0716
:1006B800003003180130FC07003003180130FD0733
:1006C80001300310FD0CFC0CFB0CFA0CFF3E031D63
:1006D800652BFF307D05031D722B732B522B7F2B4F
:1006E8000130F9020130F4000310FA0DFB0DFC0D86
:1006F800FD0DF40B782BFC1B822B832B892B0230EE
:1007080079020318882B892B742B79188C2B8D2B45
:10071800952BFF30FA05FF30FB057F30FC05FF30D5
:10072800FD050310F90C7908F400F501F601F7014D
:1007380018300310F40DF50DF60DF70DFF3E031DEF
:100748009D2B7408FA047508FB047608FC047708E6
:10075800FD0478080319B12BB22BB72BF31FB52B67
:10076800B62BB72BFD177D08F3007C08F2007B0839
:10077800F1007A08F0000800831203132708803973
:10078800A8002808B1002708A8002807A9002908F8
:10079800B800A61FD02BD12BD22B38143808031938
:1007A800D62BD72BE72B380A031DDB2BDC2BE42BAE
:1007B8000030A7000030A6000030A5000030A400DB
:1007C800A617A701EF2B0030A7000030A6000030C5
:1007D800A5000030A40023088039A8002808B10625
:1007E8002308A8002807A9002908B900A21FFD2B83
:1007F800FE2BFF2B391439080319032C042C142C55
:10080800390A031D082C092C112C0030A3000030D4
:10081800A2000030A1000030A000A217A3011C2CE8
:100828000030A3000030A2000030A1000030A0007A
:100838002308220421042004031D232C242C3D2CEE
:100848000030A7000030A6000030A5000030A4004A
:100858008030A6047F30A7043108A8002808A70420
:100868002708A3002608A2002508A1002408A00044
:100878009C2D3808031D412C422C4B2C0030A30022
:100888000030A2000030A1000030A0009C2D3808E4
:10089800A800A9012908AB0039082802AA00031CEE
:1008A800AB032A087F3EB2002B080318013E003E26
:1008B800B3002708B0002608AF002508AE002408BA
:1008C800AD000030A7000030A6000030A5000030C1
:1008D800A4000030B7000030B6000030B50000308A
:1008E800B400B901C12C390803197B2C7C2C9C2C31
:1008F8000130A8000310AD0DAE0DAF0DB00DA80B63
:100908007E2C0130A8000310A40DA50DA60DA70D7F
:10091800A80B872CB71F912C922C932C24140130F0
:10092800A8000310B40DB50DB60DB70DA80B952C86
:1009380023083002031DAA2C22082F02031DAA2C0B
:1009480021082E02031DAA2C20082D02031CAD2C01
:10095800AE2CBD2C37172008AD022108031C210F2F
:10096800AE022208031C220FAF022308031C230F28
:10097800B0020130A8002808B9071A303902031C50
:10098800C62CC72C772C30082F042E042D040319ED
:10099800CE2CCF2CEE2C3414EE2C0130A8000310F2
:1009A800A40DA50DA60DA70DA80BD32CB71FDD2CE4
:1009B800DE2CDF2C24140130A8000310B40DB50D73
:1009C800B60DB70DA80BE12CFF30B2070318B30A18
:1009D800FF30B307A61FF12CF22CD12CB901B71F99
:1009E800F62CF72C132DFF303405A800FF30350501
:1009F800A900FF303605AA007F303705AB002B0869
:100A08002A042904280403190A2D0B2D0E2DB901D7
:100A1800B90A132D241C112D122D132D0B2D390855
:100A28000319172D182D492D0130A407003003187C
:100A38000130A507003003180130A607003003185D
:100A48000130A707271C292D2A2D492D2408A80085
:100A58002508A9002608AA002708AB000130AC0029
:100A68002B0DAB0CAA0CA90CA80CAC0B342D2B0825
:100A7800A7002A08A6002908A5002808A400013014
:100A8800B2070318B30A0030B3073308803AFF00EF
:100A980080307F02031D522DFF303202031C552D7A
:100AA800562D642DFF3083120313B2000030B300BB
:100AB8000030A7000030A6000030A5000030A400D8
:100AC800831203133308803AFF0080307F02031D2E
:100AD8006F2D013032020318722D732D802D831271
:100AE8000313B201B3010030A7000030A6000030A4
:100AF800A5000030A400B101831203133208A80036
:100B08002808B800381C892D8A2D8C2DA617902D01
:100B18007F30A8002808A6053808A8000310280C6C
:100B2800A9002908A7003108A8002808A704342C20
:100B3800080083160313860107118711081088100F
:100B480008118811881308178812081687120716C3
:100B580083120313101290129010831603130510BA
:100B680085100511851105128512091089100911C2
:100B780083120313D501D601D701D801D901DA01AF
:100B88000A128A15C4270A128A110A128A11082021
:100B98000A128A110A128A15AD270A128A118030A0
:100BA8000A128A15D8270A128A110130F3008030F8
:100BB800F4000A128A1121200A128A11C0300A127E
:100BC8008A15D8270A128A111030F3008030F400F1
:100BD8000A128A1121200A128A11C5300A128A15AE
:100BE800D8270A128A111030F3008030F4000A1254
:100BF8008A1121200A128A11CC300A128A15D827A4
:100C08000A128A111030F3008030F4000A128A1197
:100C180021200A128A11033083120313C5008A3077
:100C2800C4005530C300C30B172EC40B172EC50BB9
:100C3800172E83120313881008118811413083126C
:100C48000313C400ED30C300C30B282EC40B282E99
:100C58002D2E0A128A11F3200A128A118312031305
:100C68003D08D4003C08D3003B08D2003A08D10024
:100C78004230F3007030F2000030F1000030F00034
:100C88005408F7005308F6005208F5005108F4001C
:100C98000A128A1164220A128A110318542E552E38
:100CA800632E033083120313C5008A30C400553005
:100CB800C300C30B5D2EC40B5D2EC50B5D2E8312C6
:100CC80003135408F3005308F2005208F1005108C6
:100CD800F0004230F7007030F6000030F5000030C8
:100CE800F4000A128A1164220A128A1103187D2E4E
:100CF8007E2E1D2E8312031388140A128A11A22035
:100D08000A128A11831203133D08D0003C08CF0051
:100D18003B08CE003A08CD004230F3007030F200B4
:100D28000030F1000030F0005008F7004F08F600DE
:100D38004E08F5004D08F4000A128A1164220A12BE
:100D48008A110318A82EA92EEB2E83120313550817
:100D5800013ED50056080318013E003ED60056084D
:100D6800FA005508F9000A128A119D210A128A11FF
:100D780083120313C3004308C600C0300A128A1541
:100D8800D8270A128A11831203134608C300C40124
:100D98004308F3004408F4000A128A1121200A12B9
:100DA8008A118312031355080A128A15B4270A12E6
:100DB8008A11083083120313C5009D30C400053022
:100DC800C300C30BE52EC40BE52EC50BE52E83121D
:100DD80003135008F3004F08F2004E08F1004D08C5
:100DE800F0004230F7007030F6000030F5000030B7
:100DF800F4000A128A1164220A128A110318052FB4
:100E0800062F1D2E8312031308150A128A1151206A
:100E18000A128A11831203133D08CC003C08CB0048
:100E28003B08CA003A08C9004230F3007030F200AB
:100E38000030F1000030F0004C08F7004B08F600D5
:100E48004A08F5004908F4000A128A1164220A12B5
:100E58008A110318302F312F742F83120313570868
:100E6800013ED70058080318013E003ED800580834
:100E7800FA005708F9000A128A119D210A128A11EC
:100E880083120313C3004308C700C5300A128A152A
:100E9800D8270A128A11831203134708C300C40112
:100EA8004308F3004408F4000A128A1121200A12A8
:100EB8008A11831203135708323E0A128A15B4277F
:100EC8000A128A11083083120313C5009D30C4002A
:100ED8000530C300C30B6E2FC40B6E2FC50B6E2FCE
:100EE800831203134C08F3004B08F2004A08F10080
:100EF8004908F0004230F7007030F6000030F50085
:100F08000030F4000A128A1164220A128A110318A6
:100F18008E2F8F2FD42F8312031388155908013E63
:100F2800D9005A080318013E003EDA005A08FA00B0
:100F38005908F9000A128A119D210A128A1183128E
:100F48000313C3004308C800CC300A128A15D827F7
:100F58000A128A11831203134808C300C401430804
:100F6800F3004408F4000A128A1121200A128A1197
:100F7800831203135908643E0A128A15B4270A1209
:100F88008A11083083120313C5009D30C400053050
:100F9800C300C30BCD2FC40BCD2FC50BCD2F1D2EDA
:100FA8001D2E0A128A1100280A128A1104200A1218
:100FB8008A11E7000A128A1105200A128A11E8002C
:100FC8000A128A1106200A128A11E9000A128A11E5
:100FD80007200A128A11EA00DB01DC01DD01DE01CB
:100FE800DF01E001E101E201E301E401E501E601DD
:100FF80083010A128A119D2DFF1B0A2883137F186B
:1010080083170008840A0319FF0A080008308A00B9
:101018000408840A8207003435342D3437342034E8
:1010280037342D34393420346F347634653472349F
:0A1038002034393400343034003421
:101F5A0001300A128A15D8270A128A150800F000D9
:101F6A0070088312031399000C1EBC2FBD2FB92FC2
:101F7A0083160313981CC22FC32FBD2F0800831684
:101F8A0003130717871718151930990018128312A7
:101F9A00031398171813831603131813981683122A
:101FAA00031318160800F20072088312031386003E
:101FBA000711871108140730F1007D30F000F00B8B
:101FCA00E42FF10BE42F8312031308100800F20028
:101FDA007208831203138600071587110814073045
:101FEA00F1007D30F000F00BF82FF10BF82F83127F
:061FFA00031308100800AB
:08400000FF3FFF3FFF3FFF3FC0
:02400E003A3F37
:00000001FF
