:100000000A128A11DB2FFF1B0D2883137F18831719
:100010000008840A0319FF0A080000308A00040857
:10002000840A820700342D342D342D342D342D34A0
:100030002D342D342D342D342D342D342D342D34B8
:100040002D342D342D342D342D342D342D342D34A8
:100050002D342D342D340A340034503465346F344B
:1000600070346C34653420346234653474347734DD
:10007000653465346E3420343134353430342D34C5
:100080003134373430343A3420342034003450346E
:1000900065346F3470346C346534203462346534C4
:1000A00074347734653465346E3420343134373405
:1000B00030342D343134393430343A34203420342F
:1000C0000034503465346F3470346C34653420340B
:1000D0006F3476346534723420343134393430340A
:1000E0003A3420342034003435342D34373420343D
:1000F00037342D34393420346F34763465347234E7
:1001000020343934003430340034013400343C3489
:100110000034F601F11F8D288E289528F009F10989
:10012000F00A0319F10AF601F60AF31F9828992834
:10013000A228F209F309F20A0319F30A0130F400C4
:100140007408F606F701F801700871040319A9286C
:10015000AA28E128F501F50AB82801300310F00DAE
:10016000F10DFF3E031DAE280130F4007408F507C1
:10017000F11FBB28BC28AD2801300310F70DF80D86
:10018000FF3E031DBD2871087302031DC9287008B6
:100190007202031CCC28CD28D4287008F202710802
:1001A000031CF303F302771401300310F10CF00C7D
:1001B000FF3E031DD5280130F502031DE028E1288C
:1001C000BC2876080319E528E628EB28F709F80982
:1001D000F70A0319F80A7808F1007708F000080018
:1001E000CC300A128A15D5240A128A1101308312E2
:1001F0000313D2070318D30A0030D3075308FA00B9
:100200005208F9000A128A15B8260A128A118312B6
:100210000313A4002408D8005808A400A50124084A
:10022000F3002508F4000A128A153C250A128A11E7
:100230004F30F1008030F2000A128A1516250A129A
:100240008A110A128A15B0240A128A118312031322
:100250005808A400A5012408F1002508F2000A129C
:100260008A1516250A128A110A128A15B0240A1252
:100270008A111930F1008030F2000A128A15162511
:100280000A128A110A128A15B0240A128A11013040
:10029000F1008030F2000A128A1516250A128A111E
:1002A0000A128A15B0240A128A110330831203132A
:1002B000A6008A30A5005530A400A40B5D29A50B2B
:1002C0005D29A60B5D29080000307005F80000309C
:1002D0007105F90080307205FA007F307305FB006C
:1002E0007B087A0479047804031D7729782980290A
:1002F0000030F3000030F2000030F1000030F00078
:1003000000307405F80000307505F900803076057E
:10031000FA007F307705FB007B087A0479047804C3
:10032000031D932994299C290030F7000030F60022
:100330000030F5000030F400F31F9F29A029C429E4
:100340000030F8000030F9000030FA008030FB0087
:100350007008F8027108031C710FAF29B029F90267
:100360007208031C720FB529B629FA027308031C20
:10037000730FBB29BC29FB027B08F3007A08F2004B
:100380007908F1007808F000F71FC729C829EC297F
:100390000030F8000030F9000030FA008030FB0037
:1003A0007408F8027508031C750FD729D829F902BB
:1003B0007608031C760FDD29DE29FA027708031C74
:1003C000770FE329E429FB027B08F7007A08F6009F
:1003D0007908F5007808F4008030F3068030F706DD
:1003E00077087302031DFE2976087202031DFE2999
:1003F00075087102031DFE29740870020318012A92
:10040000022A042A0310052A03140800F8007808B9
:1004100003190B2A0C2A202AF31F0F2A102A202A3C
:100420007009FA007109FB007209FC007309FD00F4
:10043000FA0A0319FB0A0319FC0A0319FD0A282A00
:100440007308FD007208FC007108FB007008FA00D8
:100450007308720471047004031D2F2A302A392A8C
:100460000030F3000030F2000030F1000030F00006
:10047000BF2A9630F4007408F9004B2A0130F400CA
:100480007408F90701300310FD0CFC0CFB0CFA0C8E
:10049000FF3E031D432AFE307D05031D502A512ACD
:1004A0003E2A6D2A0130F4007408F9070130FA077A
:1004B000003003180130FB07003003180130FC073F
:1004C000003003180130FD0701300310FD0CFC0C57
:1004D000FB0CFA0CFF3E031D652AFF307D05031D52
:1004E000722A732A522A7F2A0130F9020130F4005D
:1004F0000310FA0DFB0DFC0DFD0DF40B782AFC1B0F
:10050000822A832A892A023079020318882A892AB2
:10051000742A79188C2A8D2A952AFF30FA05FF3023
:10052000FB057F30FC05FF30FD050310F90C790851
:10053000F400F501F601F70118300310F40DF50D84
:10054000F60DF70DFF3E031D9D2A7408FA04750889
:10055000FB047608FC047708FD0478080319B12A27
:10056000B22AB72AF31FB52AB62AB72AFD177D0883
:10057000F3007C08F2007B08F1007A08F000080024
:1005800083160313860107118711081088100811BC
:100590008811881308178812081687120716831205
:1005A0000313101290129010831603130510851078
:1005B00005118511051285120A128A15C1240A1225
:1005C0008A110A128A15FD240A128A110A128A1542
:1005D00091240A128A1180300A128A15D5240A122F
:1005E0008A116230F3008030F4000A128A153C252B
:1005F0000A128A11C0300A128A15D5240A128A11E9
:100600007130F3008030F4000A128A153C250A127A
:100610008A11C5300A128A15D5240A128A1171303E
:10062000F3008030F4000A128A153C250A128A1160
:10063000CC300A128A15D5240A128A117130F300BF
:100640008030F4000A128A153C250A128A11033000
:1006500083120313C5008A30C4005530C300C30B96
:100660002F2BC40B2F2BC50B2F2B8312031388109A
:10067000081188110A128A113E240A128A11413087
:1006800083120313C400ED30C300C30B452BC40B0E
:10069000452B4A2B0A128A150E260A128A1183123A
:1006A00003133D08D1003C08D0003B08CF003A08B6
:1006B000CE004230F3007030F2000030F100003024
:1006C000F0005108F7005008F6004F08F5004E08FA
:1006D000F4000A128A1164210A128A110318712B7C
:1006E000722B802B033083120313C5008A30C400A1
:1006F0005530C300C30B7A2BC40B7A2BC50B7A2B56
:10070000831203135108F3005008F2004F08F10060
:100710004E08F0004230F7007030F6000030F5006F
:100720000030F4000A128A1164210A128A11031897
:100730009A2B9B2B352B8312031388140A128A15CC
:10074000BD250A128A11831203133D08CD003C080F
:10075000CC003B08CB003A08CA004230F3007030AE
:10076000F2000030F1000030F0004D08F7004C08B6
:10077000F6004B08F5004A08F4000A128A116421B9
:100780000A128A110318C52BC62BCB2B0A128A1505
:1007900018270A128A11831203134D08F3004C081C
:1007A000F2004B08F1004A08F0004230F7007030C8
:1007B000F6000030F5000030F4000A128A116421BE
:1007C0000A128A110318E52BE62B352B831203132B
:1007D00008150A128A156C250A128A11831203134E
:1007E0003D08C9003C08C8003B08C7003A08C600DD
:1007F0004230F3007030F2000030F1000030F000C1
:100800004908F7004808F6004708F5004608F400D4
:100810000A128A1164210A128A110318102C112C51
:10082000162C0A128A158C270A128A1183120313B6
:100830004908F3004808F2004708F1004608F000B4
:100840004230F7007030F6000030F5000030F40060
:100850000A128A1164210A128A110318302C312CD1
:100860003A2C8312031388150A128A11F0200A12F7
:100870008A11352B352B0A128A1100288312031393
:1008800067036804031D452C462CD52C05108510E4
:1008900001305605A00000305705A10020032104B7
:1008A000031D532C542C552C051520082104031D21
:1008B0005A2C5B2C5C2C05110230F0000030F1004A
:1008C0005708F3005608F2000A128A1189200A120A
:1008D0008A11710883120313D7007008D600013003
:1008E0005605A00000305705A10020032104031D78
:1008F0007A2C7B2C7C2C851520082104031D812C4F
:10090000822C832C85110230F0000030F100570852
:10091000F3005608F2000A128A1189200A128A117D
:10092000710883120313D7007008D60001305605F2
:10093000A00000305705A10020032104031DA12CB5
:10094000A22CA32C051620082104031DA82CA92CD9
:10095000AA2C05120230F0000030F1005708F30015
:100960005608F2000A128A1189200A128A117108A7
:1009700083120313D7007008D60001305605A0007B
:1009800000305705A10020032104031DC82CC92CE9
:10099000CA2C851620082104031DCF2CD02CD12C65
:1009A00085120230E7000030E80002306706680474
:1009B000031DDB2CDC2C672D05148510013054053C
:1009C000A20000305505A30022032304031DE92CD7
:1009D000EA2CEB2C051522082304031DF02CF12C26
:1009E000F22C05110230F0000030F1005508F30040
:1009F0005408F2000A128A1189200A128A11710819
:100A000083120313D5007008D40001305405A200EE
:100A100000305505A30022032304031D102D112DC2
:100A2000122D851522082304031D172D182D192DAD
:100A300085110230F0000030F1005508F300540831
:100A4000F2000A128A1189200A128A11710883128F
:100A50000313D5007008D40001305405A200003003
:100A60005505A30022032304031D372D382D392DEE
:100A7000051622082304031D3E2D3F2D402D05128F
:100A80000230F0000030F1005508F3005408F20085
:100A90000A128A1189200A128A117108831203131B
:100AA000D5007008D40001305405A200003055056F
:100AB000A30022032304031D5E2D5F2D602D8516E8
:100AC00022082304031D652D662D672D8512033032
:100AD00067066804031D6D2D6E2DFD2D0510851410
:100AE00001305205A40000305305A500240325045D
:100AF000031D7B2D7C2D7D2D051524082504031D4C
:100B0000822D832D842D05110230F0000030F1007C
:100B10005308F3005208F2000A128A1189200A12BF
:100B20008A11710883120313D3007008D2000130B8
:100B30005205A40000305305A50024032504031D1D
:100B4000A22DA32DA42D851524082504031DA92D50
:100B5000AA2DAB2D85110230F0000030F1005308B2
:100B6000F3005208F2000A128A1189200A128A112F
:100B7000710883120313D3007008D20001305205AC
:100B8000A40000305305A50024032504031DC92D2E
:100B9000CA2DCB2D051624082504031DD02DD12DDB
:100BA000D22D05120230F0000030F1005308F3009E
:100BB0005208F2000A128A1189200A128A11710859
:100BC00083120313D3007008D20001305205A40031
:100BD00000305305A50024032504031DF02DF12D3D
:100BE000F22D851624082504031DF72DF82DF92D67
:100BF00085120130E7000030E8000800831203137B
:100C000027088039A8002808B1002708A80028076D
:100C1000A9002908B800A61F0E2E0F2E102E38147A
:100C200038080319142E152E252E380A031D192EE7
:100C30001A2E222E0030A7000030A6000030A5009A
:100C40000030A400A617A7012D2E0030A700003009
:100C5000A6000030A5000030A40023088039A800B9
:100C60002808B1062308A8002807A9002908B90008
:100C7000A21F3B2E3C2E3D2E391439080319412E5C
:100C8000422E522E390A031D462E472E4F2E00307B
:100C9000A3000030A2000030A1000030A000A21785
:100CA000A3015A2E0030A3000030A2000030A100A2
:100CB0000030A0002308220421042004031D612E1B
:100CC000622E7B2E0030A7000030A6000030A50069
:100CD0000030A4008030A6047F30A7043108A800AB
:100CE0002808A7042708A3002608A2002508A100B9
:100CF0002408A000DA2F3808031D7F2E802E892EAD
:100D00000030A3000030A2000030A1000030A0009D
:100D1000DA2F3808A800A9012908AB0039082802F1
:100D2000AA00031CAB032A087F3EB2002B0803185D
:100D3000013E003EB3002708B0002608AF0025089A
:100D4000AE002408AD000030A7000030A60000303F
:100D5000A5000030A4000030B7000030B60000301D
:100D6000B5000030B400B901FF2E39080319B92EBF
:100D7000BA2EDA2E0130A8000310AD0DAE0DAF0D66
:100D8000B00DA80BBC2E0130A8000310A40DA50DBA
:100D9000A60DA70DA80BC52EB71FCF2ED02ED12E76
:100DA00024140130A8000310B40DB50DB60DB70D15
:100DB000A80BD32E23083002031DE82E22082F0291
:100DC000031DE82E21082E02031DE82E20082D0207
:100DD000031CEB2EEC2EFB2E37172008AD0221084A
:100DE000031C210FAE022208031C220FAF022308AE
:100DF000031C230FB0020130A8002808B9071A30DD
:100E00003902031C042F052FB52E30082F042E04A1
:100E10002D0403190C2F0D2F2C2F34142C2F0130DF
:100E2000A8000310A40DA50DA60DA70DA80B112F4A
:100E3000B71F1B2F1C2F1D2F24140130A8000310D7
:100E4000B40DB50DB60DB70DA80B1F2FFF30B207AF
:100E50000318B30AFF30B307A61F2F2F302F0F2F11
:100E6000B901B71F342F352F512FFF303405A8009B
:100E7000FF303505A900FF303605AA007F30370561
:100E8000AB002B082A04290428040319482F492FF2
:100E90004C2FB901B90A512F241C4F2F502F512F1D
:100EA000492F39080319552F562F872F0130A407D2
:100EB000003003180130A507003003180130A607E1
:100EC000003003180130A707271C672F682F872FD2
:100ED0002408A8002508A9002608AA002708AB00B6
:100EE0000130AC002B0DAB0CAA0CA90CA80CAC0B60
:100EF000722F2B08A7002A08A6002908A500280899
:100F0000A4000130B2070318B30A0030B307330856
:100F1000803AFF0080307F02031D902FFF303202A5
:100F2000031C932F942FA22FFF3083120313B200C0
:100F30000030B3000030A7000030A6000030A5004C
:100F40000030A400831203133308803AFF0080307E
:100F50007F02031DAD2F013032020318B02FB12FD5
:100F6000BE2F83120313B201B3010030A70000307B
:100F7000A6000030A5000030A400B10183120313C5
:100F80003208A8002808B800381CC72FC82FCA2F5D
:100F9000A617CE2F7F30A8002808A6053808A8007D
:100FA0000310280CA9002908A7003108A800280868
:100FB000A704722E08000A128A1185200A128A11CB
:100FC000E7000A128A1186200A128A11E8000A1222
:100FD0008A1187200A128A11E9000A128A118820D0
:100FE0000A128A11EA0083135230840067300A1211
:100FF0008A1598240A128A1183010A128A11C02ABA
:1019220001300A128A15D5240A128A1508006400A9
:101932008001840A0406031900340406992CF0007D
:1019420070088312031399000C1EA82CA92CA52C35
:1019520083160313981CAE2CAF2CA92C08000D3053
:101962008312031399000230F2008630F10099309D
:10197200F000F00BBA2CF10BBA2CF20BBA2C0800C7
:1019820083160313071787171815193099001812B1
:101992008312031398171813831603131813981638
:1019A2008312031318160800F2007208831203133D
:1019B20086000711871108140730F1007D30F0000E
:1019C200F00BE12CF10BE12C831203130810080039
:1019D200F200720883120313860007158711081498
:1019E2000730F1007D30F000F00BF52CF10BF52CF7
:1019F200831203130810080038300A128A15D524FE
:101A02000A128A1506300A128A15D5240A128A1574
:101A12000C300A128A15D5240A128A1501300A12CC
:101A22008A15D5240A128A1508002B2D7208FF0088
:101A3200710884000A128A1103200A128A150A12F6
:101A42008A15A0240A128A150130F1070318F20A36
:101A52000030F207720883120313FF00710884003A
:101A62000A128A1103200A128A15003A031D3A2D1E
:101A72003B2D172D0800F501F601572D7508730748
:101A8200840076080318760A7407FF000A128A1186
:101A920003200A128A150A128A15E9240A128A15E3
:101AA2000130F5070318F60A0030F60775087307C8
:101AB200840076080318760A740783120313FF0062
:101AC2000A128A1103200A128A15003A031D6A2D8E
:101AD2006B2D3F2D0800831203138E018F0188178F
:101AE200023083120313BE00BE0B752D0000831259
:101AF20003138813081F7E2D7F2D7B2D1014081BC6
:101B0200832D842D802D10104230A3006B30A20053
:101B12003330A1003330A0000E08F0000F08F100AE
:101B2200F201F30100300A128A1106220A128A1502
:101B3200730883120313A7007208A6007108A50098
:101B42007008A4000A128A11FE250A128A1583124D
:101B520003132308C2002208C1002108C000200884
:101B6200BF00101290124208BD004108BC0040089C
:101B7200BB003F08BA000800831203138E018F01D5
:101B82008816023083120313BE00BE0BC62D00005E
:101B9200831203138812081ECF2DD02DCC2D1014C2
:101BA200081AD42DD52DD12D10104230A3006B3040
:101BB200A2003330A1003330A0000E08F0000F085D
:101BC200F100F201F30100300A128A1106220A1210
:101BD2008A15730883120313A7007208A6007108FE
:101BE200A5007008A4000A128A11FE250A128A159D
:101BF200831203132308C2002208C1002108C00077
:101C02002008BF00101290124208BD004108BC001B
:101C12004008BB003F08BA000800831203138E017C
:101C22008F018716023083120313BE00BE0B172EDC
:101C32000000831203138712071E202E212E1D2E51
:101C42001014071A252E262E222E10104230A30021
:101C52006B30A2003330A1003330A0000E08F00038
:101C62000F08F100F201F30100300A128A11062274
:101C72000A128A15730883120313A7007208A600BA
:101C82007108A5007008A4000A128A11FE250A1222
:101C92008A15831203132308C2002208C1002108F7
:101CA200C0002008BF00101290124208BD00410877
:101CB200BC004008BB003F08BA000800F601F31F51
:101CC200632E642E6B2EF209F309F20A0319F30A4A
:101CD200F601F60AF11F6E2E6F2E742EF009F1092D
:101CE200F00A0319F10A700871040319792E7A2E89
:101CF200A92EF501F50A882E01300310F00DF10D21
:101D0200FF3E031D7E2E0130F4007408F507F11F1B
:101D12008B2E8C2E7D2E71087302031D922E70085D
:101D22007202031C952E962E9C2E7008F2027108E8
:101D3200031CF303F30201300310F10CF00CFF3E1D
:101D4200031D9D2E0130F502031DA82EA92E8C2EF7
:101D520076080319AD2EAE2EB32EF209F309F20A5C
:101D62000319F30A7308F1007208F00008007A08F8
:101D720083120313A1007908A0000B30A2000030E7
:101D8200A300E601FA1FC62EC72ECC2EF909FA09C6
:101D9200F90A0319FA0A0A30F0000030F1007A0851
:101DA200F3007908F2000A128A155F260A128A15D0
:101DB2007008303EFB00FF3083120313A2070318A2
:101DC200A30AFF30A30722085B3E84007B0883132B
:101DD20080000A30F0000030F1007A08F300790840
:101DE200F2000A128A1189200A128A157108FA0071
:101DF2007008F90079087A04031D002F012FCC2EF8
:101E020083120313A11F062F072F152F2D30FB005E
:101E1200FF30A2070318A30AFF30A30722085B3E84
:101E220084007B088313800022085B3E0800C030D8
:101E32000A128A15D5240A128A1501308312031355
:101E4200D6070318D70A0030D7075708FA005608F2
:101E5200F9000A128A15B8260A128A158312031388
:101E6200A4002408DA005A08A400A5012408F300FB
:101E72002508F4000A128A153C250A128A151B301D
:101E8200F1008030F2000A128A1516250A128A150C
:101E92000A128A15B0240A128A15831203135A08E9
:101EA200A400A5012408F1002508F2000A128A15EF
:101EB20016250A128A150A128A15B0240A128A15E0
:101EC2001930F1008030F2000A128A1516250A1222
:101ED2008A150A128A15B0240A128A150130F100F5
:101EE2008030F2000A128A1516250A128A150A1281
:101EF2008A15B0240A128A15033083120313A6002E
:101F02008A30A5005530A400A40B852FA50B852F80
:101F1200A60B852F0800C5300A128A15D5240A128D
:101F22008A15013083120313D4070318D50A00302F
:101F3200D5075508FA005408F9000A128A15B8267E
:101F42000A128A1583120313A4002408D90059081F
:101F5200A400A5012408F3002508F4000A128A153A
:101F62003C250A128A153530F1008030F2000A123F
:101F72008A1516250A128A150A128A15B0240A121F
:101F82008A15831203135908A400A5012408F1003D
:101F92002508F2000A128A1516250A128A150A1253
:101FA2008A15B0240A128A151930F1008030F20025
:101FB2000A128A1516250A128A150A128A15B024DF
:101FC2000A128A150130F1008030F2000A128A15D5
:101FD20016250A128A150A128A15B0240A128A15BF
:101FE200033083120313A6008A30A5005530A400E3
:0E1FF200A40BF92FA50BF92FA60BF92F080051
:08400000FF3FFF3FFF3FFF3FC0
:02400E003A3F37
:00000001FF
